{
  "contractName": "LostWallets",
  "abi": [
    {
      "constant": true,
      "inputs": [
        {
          "name": "",
          "type": "uint256"
        }
      ],
      "name": "games",
      "outputs": [
        {
          "name": "id",
          "type": "uint256"
        },
        {
          "name": "balance",
          "type": "uint256"
        },
        {
          "name": "guessPrice",
          "type": "uint256"
        }
      ],
      "payable": false,
      "stateMutability": "view",
      "type": "function"
    },
    {
      "constant": true,
      "inputs": [],
      "name": "owner",
      "outputs": [
        {
          "name": "",
          "type": "address"
        }
      ],
      "payable": false,
      "stateMutability": "view",
      "type": "function"
    },
    {
      "constant": true,
      "inputs": [],
      "name": "guessPriceIncrement",
      "outputs": [
        {
          "name": "",
          "type": "uint256"
        }
      ],
      "payable": false,
      "stateMutability": "view",
      "type": "function"
    },
    {
      "constant": false,
      "inputs": [
        {
          "name": "newOwner",
          "type": "address"
        }
      ],
      "name": "transferOwnership",
      "outputs": [],
      "payable": false,
      "stateMutability": "nonpayable",
      "type": "function"
    },
    {
      "constant": true,
      "inputs": [],
      "name": "maxPaymentPercent",
      "outputs": [
        {
          "name": "",
          "type": "uint256"
        }
      ],
      "payable": false,
      "stateMutability": "view",
      "type": "function"
    },
    {
      "payable": true,
      "stateMutability": "payable",
      "type": "fallback"
    },
    {
      "anonymous": false,
      "inputs": [
        {
          "indexed": false,
          "name": "_gameId",
          "type": "uint256"
        },
        {
          "indexed": false,
          "name": "_answer",
          "type": "string"
        },
        {
          "indexed": false,
          "name": "_user",
          "type": "address"
        }
      ],
      "name": "Guess",
      "type": "event"
    },
    {
      "anonymous": false,
      "inputs": [
        {
          "indexed": true,
          "name": "previousOwner",
          "type": "address"
        },
        {
          "indexed": true,
          "name": "newOwner",
          "type": "address"
        }
      ],
      "name": "OwnershipTransferred",
      "type": "event"
    },
    {
      "constant": false,
      "inputs": [
        {
          "name": "_gameId",
          "type": "uint256"
        },
        {
          "name": "_balance",
          "type": "uint256"
        },
        {
          "name": "_guessPrice",
          "type": "uint256"
        }
      ],
      "name": "createGame",
      "outputs": [],
      "payable": false,
      "stateMutability": "nonpayable",
      "type": "function"
    },
    {
      "constant": false,
      "inputs": [
        {
          "name": "_gameId",
          "type": "uint256"
        },
        {
          "name": "_answer",
          "type": "string"
        }
      ],
      "name": "guess",
      "outputs": [],
      "payable": true,
      "stateMutability": "payable",
      "type": "function"
    },
    {
      "constant": false,
      "inputs": [
        {
          "name": "_gameId",
          "type": "uint256"
        },
        {
          "name": "_guessPrice",
          "type": "uint256"
        }
      ],
      "name": "setGuessPrice",
      "outputs": [],
      "payable": false,
      "stateMutability": "nonpayable",
      "type": "function"
    },
    {
      "constant": true,
      "inputs": [
        {
          "name": "_gameId",
          "type": "uint256"
        }
      ],
      "name": "getGuessPrice",
      "outputs": [
        {
          "name": "",
          "type": "uint256"
        }
      ],
      "payable": false,
      "stateMutability": "view",
      "type": "function"
    },
    {
      "constant": false,
      "inputs": [
        {
          "name": "_increment",
          "type": "uint256"
        }
      ],
      "name": "setGuessPriceIncrement",
      "outputs": [],
      "payable": false,
      "stateMutability": "nonpayable",
      "type": "function"
    },
    {
      "constant": false,
      "inputs": [
        {
          "name": "_gameId",
          "type": "uint256"
        },
        {
          "name": "_winners",
          "type": "address[]"
        },
        {
          "name": "_awards",
          "type": "uint256[]"
        }
      ],
      "name": "claimPot",
      "outputs": [],
      "payable": false,
      "stateMutability": "nonpayable",
      "type": "function"
    }
  ],
  "bytecode": "0x60806040526096600255655af3107a4000600355336000806101000a81548173ffffffffffffffffffffffffffffffffffffffff021916908373ffffffffffffffffffffffffffffffffffffffff160217905550610b7b806100626000396000f3006080604052600436106100af576000357c0100000000000000000000000000000000000000000000000000000000900463ffffffff168063117a5b90146100b15780633353ae5e146101005780634b2c12eb1461012d578063773f5edc146101e05780637ec22f6d146102185780638da5cb5b1461024f578063be3628c9146102a6578063c2741521146102d1578063df75c1a914610312578063f2fde38b14610353578063f74cd05f14610396575b005b3480156100bd57600080fd5b506100dc600480360381019080803590602001909291905050506103c1565b60405180848152602001838152602001828152602001935050505060405180910390f35b34801561010c57600080fd5b5061012b600480360381019080803590602001909291905050506103eb565b005b34801561013957600080fd5b506101de600480360381019080803590602001909291908035906020019082018035906020019080806020026020016040519081016040528093929190818152602001838360200280828437820191505050505050919291929080359060200190820180359060200190808060200260200160405190810160405280939291908181526020018383602002808284378201915050505050509192919290505050610450565b005b61021660048036038101908080359060200190929190803590602001908201803590602001919091929391929390505050610612565b005b34801561022457600080fd5b5061024d6004803603810190808035906020019092919080359060200190929190505050610791565b005b34801561025b57600080fd5b50610264610831565b604051808273ffffffffffffffffffffffffffffffffffffffff1673ffffffffffffffffffffffffffffffffffffffff16815260200191505060405180910390f35b3480156102b257600080fd5b506102bb610856565b6040518082815260200191505060405180910390f35b3480156102dd57600080fd5b5061031060048036038101908080359060200190929190803590602001909291908035906020019092919050505061085c565b005b34801561031e57600080fd5b5061033d60048036038101908080359060200190929190505050610931565b6040518082815260200191505060405180910390f35b34801561035f57600080fd5b50610394600480360381019080803573ffffffffffffffffffffffffffffffffffffffff169060200190929190505050610977565b005b3480156103a257600080fd5b506103ab610acc565b6040518082815260200191505060405180910390f35b60016020528060005260406000206000915090508060000154908060010154908060020154905083565b6000809054906101000a900473ffffffffffffffffffffffffffffffffffffffff1673ffffffffffffffffffffffffffffffffffffffff163373ffffffffffffffffffffffffffffffffffffffff1614151561044657600080fd5b8060038190555050565b60008060008060009054906101000a900473ffffffffffffffffffffffffffffffffffffffff1673ffffffffffffffffffffffffffffffffffffffff163373ffffffffffffffffffffffffffffffffffffffff161415156104b057600080fd5b858060016000838152602001908152602001600020600001541415156104d557600080fd5b6104de33610ad2565b1515156104ea57600080fd5b845186511415156104fa57600080fd5b6000935061053c606461052e600254600160008c815260200190815260200160002060010154610ae590919063ffffffff16565b610b1d90919063ffffffff16565b9250600091505b85518210156105fa57610576858381518110151561055d57fe5b9060200190602002015185610b3390919063ffffffff16565b9350858281518110151561058657fe5b9060200190602002015173ffffffffffffffffffffffffffffffffffffffff166108fc86848151811015156105b757fe5b906020019060200201519081150290604051600060405180830381858888f193505050501580156105ec573d6000803e3d6000fd5b508180600101925050610543565b82841115151561060957600080fd5b50505050505050565b8280600160008381526020019081526020016000206000015414151561063757600080fd5b34600160008681526020019081526020016000206002015414151561065b57600080fd5b61066433610ad2565b15151561067057600080fd5b7fa7ca8bbfa1b482022474868c27190603006c1fa34c349c4dff3a72c51fe49d958484843360405180858152602001806020018373ffffffffffffffffffffffffffffffffffffffff1673ffffffffffffffffffffffffffffffffffffffff168152602001828103825285858281815260200192508082843782019150509550505050505060405180910390a160035460016000868152602001908152602001600020600201600082825401925050819055506000809054906101000a900473ffffffffffffffffffffffffffffffffffffffff1673ffffffffffffffffffffffffffffffffffffffff166108fc349081150290604051600060405180830381858888f1935050505015801561078a573d6000803e3d6000fd5b5050505050565b6000809054906101000a900473ffffffffffffffffffffffffffffffffffffffff1673ffffffffffffffffffffffffffffffffffffffff163373ffffffffffffffffffffffffffffffffffffffff161415156107ec57600080fd5b8180600160008381526020019081526020016000206000015414151561081157600080fd5b816001600085815260200190815260200160002060020181905550505050565b6000809054906101000a900473ffffffffffffffffffffffffffffffffffffffff1681565b60035481565b6000809054906101000a900473ffffffffffffffffffffffffffffffffffffffff1673ffffffffffffffffffffffffffffffffffffffff163373ffffffffffffffffffffffffffffffffffffffff161415156108b757600080fd5b600060016000858152602001908152602001600020600001541415156108dc57600080fd5b6060604051908101604052808481526020018381526020018281525060016000858152602001908152602001600020600082015181600001556020820151816001015560408201518160020155905050505050565b60008180600160008381526020019081526020016000206000015414151561095857600080fd5b6001600084815260200190815260200160002060020154915050919050565b6000809054906101000a900473ffffffffffffffffffffffffffffffffffffffff1673ffffffffffffffffffffffffffffffffffffffff163373ffffffffffffffffffffffffffffffffffffffff161415156109d257600080fd5b600073ffffffffffffffffffffffffffffffffffffffff168173ffffffffffffffffffffffffffffffffffffffff1614151515610a0e57600080fd5b8073ffffffffffffffffffffffffffffffffffffffff166000809054906101000a900473ffffffffffffffffffffffffffffffffffffffff1673ffffffffffffffffffffffffffffffffffffffff167f8be0079c531659141344cd1fd0a4f28419497f9722a3daafe3b4186f6b6457e060405160405180910390a3806000806101000a81548173ffffffffffffffffffffffffffffffffffffffff021916908373ffffffffffffffffffffffffffffffffffffffff16021790555050565b60025481565b600080823b905060008111915050919050565b600080831415610af85760009050610b17565b8183029050818382811515610b0957fe5b04141515610b1357fe5b8090505b92915050565b60008183811515610b2a57fe5b04905092915050565b60008183019050828110151515610b4657fe5b809050929150505600a165627a7a72305820ac87f70afdd9d2243b9077eec6212e7e5a013d8243114231d695e9015025f68b0029",
  "source": "pragma solidity ^0.4.23;\n\nimport \"zeppelin-solidity/contracts/ownership/Ownable.sol\";\nimport \"zeppelin-solidity/contracts/math/SafeMath.sol\";\n\ncontract LostWallets is Ownable {\n    using SafeMath for uint;\n\n    struct Game {\n        uint id;\n        uint balance;\n        uint guessPrice;\n    }\n\n    event Guess(uint _gameId, string _answer, address _user);\n\n    mapping(uint => Game) public games;\n    uint public maxPaymentPercent = 150;\n    uint public guessPriceIncrement = 100000000000000; // 0.0001 ETH\n\n    modifier gameExists(uint _gameId) {\n        require(games[_gameId].id == _gameId);\n        _;\n    }\n\n    function() public payable { }\n\n    function createGame(uint _gameId, uint _balance, uint _guessPrice) external onlyOwner {\n        // require that there is still no game with such id\n        require(games[_gameId].id == 0);\n\n        games[_gameId] = Game({\n            id: _gameId,\n            balance: _balance,\n            guessPrice: _guessPrice\n            });\n    }\n\n    function guess(uint _gameId, string _answer) external payable gameExists(_gameId) {\n        require(games[_gameId].guessPrice == msg.value);\n        require(!isContract(msg.sender));\n\n        emit Guess(_gameId, _answer, msg.sender);\n        games[_gameId].guessPrice += guessPriceIncrement;\n        owner.transfer(msg.value);\n    }\n\n    function setGuessPrice(uint _gameId, uint _guessPrice) external onlyOwner gameExists(_gameId) {\n        games[_gameId].guessPrice = _guessPrice;\n    }\n\n    function getGuessPrice(uint _gameId) external view gameExists(_gameId) returns(uint) {\n        return games[_gameId].guessPrice;\n    }\n\n    function setGuessPriceIncrement(uint _increment) public onlyOwner {\n        guessPriceIncrement = _increment;\n    }\n\n    function isContract(address userAddress) internal view returns (bool) {\n        uint size;\n        assembly { size := extcodesize(userAddress) }\n        return size > 0;\n    }\n\n    function claimPot(uint _gameId, address[] _winners, uint[] _awards) public onlyOwner gameExists(_gameId)\n    {\n        require(!isContract(msg.sender));\n        require(_winners.length == _awards.length);\n\n        uint totalPayment = 0;\n        uint maxPayment = games[_gameId].balance.mul(maxPaymentPercent).div(100);\n\n        for(uint i = 0; i < _winners.length; i++) {\n            totalPayment = totalPayment.add(_awards[i]);\n            _winners[i].transfer(_awards[i]);\n        }\n\n        require(totalPayment <= maxPayment);\n    }\n}\n",
  "sourcePath": "/Users/mark/Workspace/lost-wallets/contract/contracts/LostWallets.sol",
  "compiler": {
    "name": "solc",
    "version": "0.4.23+commit.124ca40d.Emscripten.clang"
  },
  "schemaVersion": "2.0.0",
  "updatedAt": "2018-05-28T10:46:22.224Z"
}